{
  "_format": "hh-sol-artifact-1",
  "contractName": "Web3RSVP",
  "sourceName": "contracts/Web3RSVP.sol",
  "abi": [
    {
      "anonymous": false,
      "inputs": [
        {
          "indexed": false,
          "internalType": "bytes32",
          "name": "eventID",
          "type": "bytes32"
        },
        {
          "indexed": false,
          "internalType": "address",
          "name": "attendeeAddress",
          "type": "address"
        }
      ],
      "name": "ConfirmedAttendee",
      "type": "event"
    },
    {
      "anonymous": false,
      "inputs": [
        {
          "indexed": false,
          "internalType": "bytes32",
          "name": "eventID",
          "type": "bytes32"
        }
      ],
      "name": "DepositsPaidOut",
      "type": "event"
    },
    {
      "anonymous": false,
      "inputs": [
        {
          "indexed": false,
          "internalType": "bytes32",
          "name": "eventID",
          "type": "bytes32"
        },
        {
          "indexed": false,
          "internalType": "address",
          "name": "creatorAddress",
          "type": "address"
        },
        {
          "indexed": false,
          "internalType": "uint256",
          "name": "eventTimestamp",
          "type": "uint256"
        },
        {
          "indexed": false,
          "internalType": "uint256",
          "name": "maxCapacity",
          "type": "uint256"
        },
        {
          "indexed": false,
          "internalType": "uint256",
          "name": "deposit",
          "type": "uint256"
        },
        {
          "indexed": false,
          "internalType": "string",
          "name": "eventDataCID",
          "type": "string"
        }
      ],
      "name": "NewEventCreated",
      "type": "event"
    },
    {
      "anonymous": false,
      "inputs": [
        {
          "indexed": false,
          "internalType": "bytes32",
          "name": "eventID",
          "type": "bytes32"
        },
        {
          "indexed": false,
          "internalType": "address",
          "name": "attendeeAddress",
          "type": "address"
        }
      ],
      "name": "NewRSVP",
      "type": "event"
    },
    {
      "inputs": [
        {
          "internalType": "bytes32",
          "name": "eventId",
          "type": "bytes32"
        }
      ],
      "name": "confirmAllAttendees",
      "outputs": [],
      "stateMutability": "nonpayable",
      "type": "function"
    },
    {
      "inputs": [
        {
          "internalType": "bytes32",
          "name": "eventId",
          "type": "bytes32"
        },
        {
          "internalType": "address",
          "name": "attendee",
          "type": "address"
        }
      ],
      "name": "confirmAttendee",
      "outputs": [],
      "stateMutability": "nonpayable",
      "type": "function"
    },
    {
      "inputs": [
        {
          "internalType": "uint256",
          "name": "eventTimestamp",
          "type": "uint256"
        },
        {
          "internalType": "uint256",
          "name": "deposit",
          "type": "uint256"
        },
        {
          "internalType": "uint256",
          "name": "maxCapacity",
          "type": "uint256"
        },
        {
          "internalType": "string",
          "name": "eventDataCID",
          "type": "string"
        }
      ],
      "name": "createNewEvent",
      "outputs": [],
      "stateMutability": "nonpayable",
      "type": "function"
    },
    {
      "inputs": [
        {
          "internalType": "bytes32",
          "name": "eventId",
          "type": "bytes32"
        }
      ],
      "name": "createNewRSVP",
      "outputs": [],
      "stateMutability": "payable",
      "type": "function"
    },
    {
      "inputs": [
        {
          "internalType": "bytes32",
          "name": "",
          "type": "bytes32"
        }
      ],
      "name": "idToEvent",
      "outputs": [
        {
          "internalType": "bytes32",
          "name": "eventId",
          "type": "bytes32"
        },
        {
          "internalType": "string",
          "name": "eventDataCID",
          "type": "string"
        },
        {
          "internalType": "address",
          "name": "eventOwner",
          "type": "address"
        },
        {
          "internalType": "uint256",
          "name": "eventTimestamp",
          "type": "uint256"
        },
        {
          "internalType": "uint256",
          "name": "deposit",
          "type": "uint256"
        },
        {
          "internalType": "uint256",
          "name": "maxCapacity",
          "type": "uint256"
        },
        {
          "internalType": "bool",
          "name": "paidOut",
          "type": "bool"
        }
      ],
      "stateMutability": "view",
      "type": "function"
    },
    {
      "inputs": [
        {
          "internalType": "bytes32",
          "name": "eventId",
          "type": "bytes32"
        }
      ],
      "name": "withdrawUnclaimedDeposits",
      "outputs": [],
      "stateMutability": "nonpayable",
      "type": "function"
    }
  ],
  "bytecode": "0x608060405234801561001057600080fd5b506121f9806100206000396000f3fe6080604052600436106100545760003560e01c806292098c1461005957806317f0165a146100825780636dcdf2cd1461009e57806379747571146100c7578063909ef021146100f0578063acdbe01214610133575b600080fd5b34801561006557600080fd5b50610080600480360381019061007b91906116ae565b61015c565b005b61009c60048036038101906100979190611649565b6103d0565b005b3480156100aa57600080fd5b506100c560048036038101906100c09190611672565b61061c565b005b3480156100d357600080fd5b506100ee60048036038101906100e99190611649565b610b8d565b005b3480156100fc57600080fd5b5061011760048036038101906101129190611649565b611045565b60405161012a9796959493929190611ae7565b60405180910390f35b34801561013f57600080fd5b5061015a60048036038101906101559190611649565b61113c565b005b600033308787876040516020016101779594939291906119c5565b604051602081830303815290604052805190602001209050600080600083815260200190815260200160002060030154146101e7576040517f08c379a00000000000000000000000000000000000000000000000000000000081526004016101de90611b9d565b60405180910390fd5b60608060405180610120016040528084815260200186868080601f016020809104026020016040519081016040528093929190818152602001838380828437600081840152601f19601f8201169050808301925050505050505081526020013373ffffffffffffffffffffffffffffffffffffffff168152602001898152602001888152602001878152602001838152602001828152602001600015158152506000808581526020019081526020016000206000820151816000015560208201518160010190805190602001906102bf929190611493565b5060408201518160020160006101000a81548173ffffffffffffffffffffffffffffffffffffffff021916908373ffffffffffffffffffffffffffffffffffffffff160217905550606082015181600301556080820151816004015560a0820151816005015560c0820151816006019080519060200190610341929190611519565b5060e082015181600701908051906020019061035e929190611519565b506101008201518160080160006101000a81548160ff0219169083151502179055509050507f2553138c3f9c9008f266dbdbe9fc64f5b71e098d06ef714a190a65a8b9fc6bf383338a898b8a8a6040516103be9796959493929190611a7d565b60405180910390a15050505050505050565b600080600083815260200190815260200160002090508060040154341461042c576040517f08c379a000000000000000000000000000000000000000000000000000000000815260040161042390611bfd565b60405180910390fd5b8060050154816006018054905010610479576040517f08c379a000000000000000000000000000000000000000000000000000000000815260040161047090611b7d565b60405180910390fd5b60005b81600601805490508160ff161015610579573373ffffffffffffffffffffffffffffffffffffffff16826006018260ff16815481106104e4577f4e487b7100000000000000000000000000000000000000000000000000000000600052603260045260246000fd5b9060005260206000200160009054906101000a900473ffffffffffffffffffffffffffffffffffffffff1673ffffffffffffffffffffffffffffffffffffffff161415610566576040517f08c379a000000000000000000000000000000000000000000000000000000000815260040161055d90611c3d565b60405180910390fd5b808061057190611ebb565b91505061047c565b5080600601339080600181540180825580915050600190039060005260206000200160009091909190916101000a81548173ffffffffffffffffffffffffffffffffffffffff021916908373ffffffffffffffffffffffffffffffffffffffff1602179055507fb79f4240bbdd272d98e02a5db7f0cf156e5fc000961c517670a26eeeec63ed908233604051610610929190611a54565b60405180910390a15050565b600080600084815260200190815260200160002090508060020160009054906101000a900473ffffffffffffffffffffffffffffffffffffffff1673ffffffffffffffffffffffffffffffffffffffff163373ffffffffffffffffffffffffffffffffffffffff16146106c4576040517f08c379a00000000000000000000000000000000000000000000000000000000081526004016106bb90611c9d565b60405180910390fd5b600080600090505b82600601805490508160ff1610156107fb578373ffffffffffffffffffffffffffffffffffffffff16836006018260ff1681548110610734577f4e487b7100000000000000000000000000000000000000000000000000000000600052603260045260246000fd5b9060005260206000200160009054906101000a900473ffffffffffffffffffffffffffffffffffffffff1673ffffffffffffffffffffffffffffffffffffffff1614156107e857826006018160ff16815481106107ba577f4e487b7100000000000000000000000000000000000000000000000000000000600052603260045260246000fd5b9060005260206000200160009054906101000a900473ffffffffffffffffffffffffffffffffffffffff1691505b80806107f390611ebb565b9150506106cc565b508273ffffffffffffffffffffffffffffffffffffffff168173ffffffffffffffffffffffffffffffffffffffff161461086a576040517f08c379a000000000000000000000000000000000000000000000000000000000815260040161086190611c5d565b60405180910390fd5b60005b82600701805490508160ff16101561096a578373ffffffffffffffffffffffffffffffffffffffff16836007018260ff16815481106108d5577f4e487b7100000000000000000000000000000000000000000000000000000000600052603260045260246000fd5b9060005260206000200160009054906101000a900473ffffffffffffffffffffffffffffffffffffffff1673ffffffffffffffffffffffffffffffffffffffff161415610957576040517f08c379a000000000000000000000000000000000000000000000000000000000815260040161094e90611b5d565b60405180910390fd5b808061096290611ebb565b91505061086d565b50600015158260080160009054906101000a900460ff161515146109c3576040517f08c379a00000000000000000000000000000000000000000000000000000000081526004016109ba90611bbd565b60405180910390fd5b81600701839080600181540180825580915050600190039060005260206000200160009091909190916101000a81548173ffffffffffffffffffffffffffffffffffffffff021916908373ffffffffffffffffffffffffffffffffffffffff16021790555060008373ffffffffffffffffffffffffffffffffffffffff168360040154604051610a5290611a24565b60006040518083038185875af1925050503d8060008114610a8f576040519150601f19603f3d011682016040523d82523d6000602084013e610a94565b606091505b5050905080610b0d5782600701805480610ad7577f4e487b7100000000000000000000000000000000000000000000000000000000600052603160045260246000fd5b6001900381819060005260206000200160006101000a81549073ffffffffffffffffffffffffffffffffffffffff021916905590555b80610b4d576040517f08c379a0000000000000000000000000000000000000000000000000000000008152600401610b4490611bdd565b60405180910390fd5b7ff8d1583a733d83bdd3ef5464129d0a95a36d62b382d31c6d0467a61f4264381b8585604051610b7e929190611a54565b60405180910390a15050505050565b60008060008381526020019081526020016000206040518061012001604052908160008201548152602001600182018054610bc790611e89565b80601f0160208091040260200160405190810160405280929190818152602001828054610bf390611e89565b8015610c405780601f10610c1557610100808354040283529160200191610c40565b820191906000526020600020905b815481529060010190602001808311610c2357829003601f168201915b505050505081526020016002820160009054906101000a900473ffffffffffffffffffffffffffffffffffffffff1673ffffffffffffffffffffffffffffffffffffffff1673ffffffffffffffffffffffffffffffffffffffff16815260200160038201548152602001600482015481526020016005820154815260200160068201805480602002602001604051908101604052809291908181526020018280548015610d4257602002820191906000526020600020905b8160009054906101000a900473ffffffffffffffffffffffffffffffffffffffff1673ffffffffffffffffffffffffffffffffffffffff1681526020019060010190808311610cf8575b5050505050815260200160078201805480602002602001604051908101604052809291908181526020018280548015610dd057602002820191906000526020600020905b8160009054906101000a900473ffffffffffffffffffffffffffffffffffffffff1673ffffffffffffffffffffffffffffffffffffffff1681526020019060010190808311610d86575b505050505081526020016008820160009054906101000a900460ff161515151581525050905080610100015115610e3c576040517f08c379a0000000000000000000000000000000000000000000000000000000008152600401610e3390611c1d565b60405180910390fd5b62093a808160600151610e4f9190611d04565b421015610e91576040517f08c379a0000000000000000000000000000000000000000000000000000000008152600401610e8890611cbd565b60405180910390fd5b806040015173ffffffffffffffffffffffffffffffffffffffff163373ffffffffffffffffffffffffffffffffffffffff1614610f03576040517f08c379a0000000000000000000000000000000000000000000000000000000008152600401610efa90611c7d565b60405180910390fd5b60008160e00151518260c0015151610f1b9190611db4565b90506000826080015182610f2f9190611d5a565b905060018361010001901515908115158152505060003373ffffffffffffffffffffffffffffffffffffffff1682604051610f6990611a24565b60006040518083038185875af1925050503d8060008114610fa6576040519150601f19603f3d011682016040523d82523d6000602084013e610fab565b606091505b5050905080610fc7576000846101000190151590811515815250505b80611007576040517f08c379a0000000000000000000000000000000000000000000000000000000008152600401610ffe90611bdd565b60405180910390fd5b7f393073ea1365f611c3d2f240c992960d2b99dc81715555d3fc40fc55ba80af9c856040516110369190611a39565b60405180910390a15050505050565b600060205280600052604060002060009150905080600001549080600101805461106e90611e89565b80601f016020809104026020016040519081016040528092919081815260200182805461109a90611e89565b80156110e75780601f106110bc576101008083540402835291602001916110e7565b820191906000526020600020905b8154815290600101906020018083116110ca57829003601f168201915b5050505050908060020160009054906101000a900473ffffffffffffffffffffffffffffffffffffffff16908060030154908060040154908060050154908060080160009054906101000a900460ff16905087565b6000806000838152602001908152602001600020604051806101200160405290816000820154815260200160018201805461117690611e89565b80601f01602080910402602001604051908101604052809291908181526020018280546111a290611e89565b80156111ef5780601f106111c4576101008083540402835291602001916111ef565b820191906000526020600020905b8154815290600101906020018083116111d257829003601f168201915b505050505081526020016002820160009054906101000a900473ffffffffffffffffffffffffffffffffffffffff1673ffffffffffffffffffffffffffffffffffffffff1673ffffffffffffffffffffffffffffffffffffffff168152602001600382015481526020016004820154815260200160058201548152602001600682018054806020026020016040519081016040528092919081815260200182805480156112f157602002820191906000526020600020905b8160009054906101000a900473ffffffffffffffffffffffffffffffffffffffff1673ffffffffffffffffffffffffffffffffffffffff16815260200190600101908083116112a7575b505050505081526020016007820180548060200260200160405190810160405280929190818152602001828054801561137f57602002820191906000526020600020905b8160009054906101000a900473ffffffffffffffffffffffffffffffffffffffff1673ffffffffffffffffffffffffffffffffffffffff1681526020019060010190808311611335575b505050505081526020016008820160009054906101000a900460ff1615151515815250509050806040015173ffffffffffffffffffffffffffffffffffffffff163373ffffffffffffffffffffffffffffffffffffffff1614611417576040517f08c379a000000000000000000000000000000000000000000000000000000000815260040161140e90611c9d565b60405180910390fd5b60005b8160c00151518160ff16101561148e5761147b838360c001518360ff168151811061146e577f4e487b7100000000000000000000000000000000000000000000000000000000600052603260045260246000fd5b602002602001015161061c565b808061148690611ebb565b91505061141a565b505050565b82805461149f90611e89565b90600052602060002090601f0160209004810192826114c15760008555611508565b82601f106114da57805160ff1916838001178555611508565b82800160010185558215611508579182015b828111156115075782518255916020019190600101906114ec565b5b50905061151591906115a3565b5090565b828054828255906000526020600020908101928215611592579160200282015b828111156115915782518260006101000a81548173ffffffffffffffffffffffffffffffffffffffff021916908373ffffffffffffffffffffffffffffffffffffffff16021790555091602001919060010190611539565b5b50905061159f91906115a3565b5090565b5b808211156115bc5760008160009055506001016115a4565b5090565b6000813590506115cf8161217e565b92915050565b6000813590506115e481612195565b92915050565b60008083601f8401126115fc57600080fd5b8235905067ffffffffffffffff81111561161557600080fd5b60208301915083600182028301111561162d57600080fd5b9250929050565b600081359050611643816121ac565b92915050565b60006020828403121561165b57600080fd5b6000611669848285016115d5565b91505092915050565b6000806040838503121561168557600080fd5b6000611693858286016115d5565b92505060206116a4858286016115c0565b9150509250929050565b6000806000806000608086880312156116c657600080fd5b60006116d488828901611634565b95505060206116e588828901611634565b94505060406116f688828901611634565b935050606086013567ffffffffffffffff81111561171357600080fd5b61171f888289016115ea565b92509250509295509295909350565b61173781611de8565b82525050565b61174e61174982611de8565b611ee5565b82525050565b61175d81611dfa565b82525050565b61176c81611e06565b82525050565b600061177e8385611cf3565b935061178b838584611e47565b61179483611f71565b840190509392505050565b60006117aa82611cdd565b6117b48185611cf3565b93506117c4818560208601611e56565b6117cd81611f71565b840191505092915050565b60006117e5600f83611cf3565b91506117f082611f8f565b602082019050919050565b6000611808601f83611cf3565b915061181382611fb8565b602082019050919050565b600061182b601283611cf3565b915061183682611fe1565b602082019050919050565b600061184e601083611cf3565b91506118598261200a565b602082019050919050565b6000611871601483611cf3565b915061187c82612033565b602082019050919050565b6000611894600b83611cf3565b915061189f8261205c565b602082019050919050565b60006118b7600c83611cf3565b91506118c282612085565b602082019050919050565b60006118da601183611cf3565b91506118e5826120ae565b602082019050919050565b60006118fd601283611cf3565b9150611908826120d7565b602082019050919050565b6000611920600083611ce8565b915061192b82612100565b600082019050919050565b6000611943601383611cf3565b915061194e82612103565b602082019050919050565b6000611966600e83611cf3565b91506119718261212c565b602082019050919050565b6000611989600983611cf3565b915061199482612155565b602082019050919050565b6119a881611e30565b82525050565b6119bf6119ba82611e30565b611f09565b82525050565b60006119d1828861173d565b6014820191506119e1828761173d565b6014820191506119f182866119ae565b602082019150611a0182856119ae565b602082019150611a1182846119ae565b6020820191508190509695505050505050565b6000611a2f82611913565b9150819050919050565b6000602082019050611a4e6000830184611763565b92915050565b6000604082019050611a696000830185611763565b611a76602083018461172e565b9392505050565b600060c082019050611a92600083018a611763565b611a9f602083018961172e565b611aac604083018861199f565b611ab9606083018761199f565b611ac6608083018661199f565b81810360a0830152611ad9818486611772565b905098975050505050505050565b600060e082019050611afc600083018a611763565b8181036020830152611b0e818961179f565b9050611b1d604083018861172e565b611b2a606083018761199f565b611b37608083018661199f565b611b4460a083018561199f565b611b5160c0830184611754565b98975050505050505050565b60006020820190508181036000830152611b76816117d8565b9050919050565b60006020820190508181036000830152611b96816117fb565b9050919050565b60006020820190508181036000830152611bb68161181e565b9050919050565b60006020820190508181036000830152611bd681611841565b9050919050565b60006020820190508181036000830152611bf681611864565b9050919050565b60006020820190508181036000830152611c1681611887565b9050919050565b60006020820190508181036000830152611c36816118aa565b9050919050565b60006020820190508181036000830152611c56816118cd565b9050919050565b60006020820190508181036000830152611c76816118f0565b9050919050565b60006020820190508181036000830152611c9681611936565b9050919050565b60006020820190508181036000830152611cb681611959565b9050919050565b60006020820190508181036000830152611cd68161197c565b9050919050565b600081519050919050565b600081905092915050565b600082825260208201905092915050565b6000611d0f82611e30565b9150611d1a83611e30565b9250827fffffffffffffffffffffffffffffffffffffffffffffffffffffffffffffffff03821115611d4f57611d4e611f13565b5b828201905092915050565b6000611d6582611e30565b9150611d7083611e30565b9250817fffffffffffffffffffffffffffffffffffffffffffffffffffffffffffffffff0483118215151615611da957611da8611f13565b5b828202905092915050565b6000611dbf82611e30565b9150611dca83611e30565b925082821015611ddd57611ddc611f13565b5b828203905092915050565b6000611df382611e10565b9050919050565b60008115159050919050565b6000819050919050565b600073ffffffffffffffffffffffffffffffffffffffff82169050919050565b6000819050919050565b600060ff82169050919050565b82818337600083830152505050565b60005b83811015611e74578082015181840152602081019050611e59565b83811115611e83576000848401525b50505050565b60006002820490506001821680611ea157607f821691505b60208210811415611eb557611eb4611f42565b5b50919050565b6000611ec682611e3a565b915060ff821415611eda57611ed9611f13565b5b600182019050919050565b6000611ef082611ef7565b9050919050565b6000611f0282611f82565b9050919050565b6000819050919050565b7f4e487b7100000000000000000000000000000000000000000000000000000000600052601160045260246000fd5b7f4e487b7100000000000000000000000000000000000000000000000000000000600052602260045260246000fd5b6000601f19601f8301169050919050565b60008160601b9050919050565b7f414c524541445920434c41494d45440000000000000000000000000000000000600082015250565b7f54686973206576656e7420686164207265616368656420636170616369747900600082015250565b7f414c524541445920524547495354455245440000000000000000000000000000600082015250565b7f414c52454144592050414944204f555400000000000000000000000000000000600082015250565b7f4661696c656420746f2073656e64204574686572000000000000000000000000600082015250565b7f4e4f5420454e4f55474854000000000000000000000000000000000000000000600082015250565b7f414c524541445920504149440000000000000000000000000000000000000000600082015250565b7f416c726561647920436f6e6669726d6564000000000000000000000000000000600082015250565b7f4e4f205253565020544f20434f4e4649524d0000000000000000000000000000600082015250565b50565b7f4d555354204245204556454e54204f574e455200000000000000000000000000600082015250565b7f4e4f5420415554484f52495a4544000000000000000000000000000000000000600082015250565b7f544f4f204541524c590000000000000000000000000000000000000000000000600082015250565b61218781611de8565b811461219257600080fd5b50565b61219e81611e06565b81146121a957600080fd5b50565b6121b581611e30565b81146121c057600080fd5b5056fea26469706673582212203f40cd1511da9f4977fcdc6d94ebdb6c27bdc335cd98f9144d1fb319043f2dfe64736f6c63430008040033",
  "linkReferences": {},
  "deployedLinkReferences": {}
}